:100000000C9434000C94D3020C94E7020C949203E9
:100010000C94B9030C94E0030C9451000C9451001F
:100020000C9451000C9451000C9451000C9451000C
:100030000C9451000C9446030C9451000C94510004
:100040000C94DD020C9451000C946A030C94510042
:100050000C9451000C9451000C9451000C945100DC
:100060000C9451000C94510011241FBECFEFD8E026
:10007000DEBFCDBF11E0A0E0B1E0E8E0F3E102C0F7
:1000800005900D92A633B107D9F721E0A6E3B1E0C0
:1000900001C01D92A236B207E1F70E94EF050C9451
:1000A00082090C940000AC0120E030E00EC0FA019F
:1000B000E20FF31F9081992359F09093C60090911D
:1000C000C00095FFFCCF2F5F3F4F283231057CF3F6
:1000D0000895BF92CF92DF92EF92FF920F931F93FA
:1000E000CF93DF93CDB7DEB7A8970FB6F894DEBFF6
:1000F0000FBECDBF082FFE01319688E2DF011D92B1
:100100008A95E9F780ED800F823000F5E0913701A4
:10011000F091380181E0003309F480E0858B858916
:100120001F928F9381E091E09F938F93CE01019670
:100130007C019F938F930E949006C7010E945300F9
:100140000F900F900F900F900F900F900233B9F512
:100150008AE0E1E1F1E0DE01119601900D928A95CD
:10016000E1F7CE0101960E94530011E01EC0E0911C
:100170003701F0913801E10FF11D818D1F928F93AE
:100180008BE191E09F938F93DE0111967D01BF93E8
:10019000AF930E949006C7010E9453001F5F0F900B
:1001A0000F900F900F900F900F90163000F38AE091
:1001B00090E09A838983CE0101960E945300033315
:1001C00059F51FC0E0913701F0913801E10FF11DA1
:1001D00087851F928F938BE191E09F938F93CE0140
:1001E00001967C019F938F930E949006C7010E9405
:1001F00053001F5F0F900F900F900F900F900F9074
:1002000001C010E01A30F0F28AE090E09A8389830E
:10021000CE0101960E945300043309F06AC08DE0BC
:10022000EFE1F1E0DE01119601900D928A95E1F780
:10023000CE0101960E945300B12C4FC0E0913701CE
:10024000F09138018B2D90E08C01000F111F080FE9
:10025000191FE00FF11F81811F928F930F2EFCE277
:10026000CF2EF1E0DF2EF02DDF92CF92DE0111963E
:100270007D01BF93AF930E949006C7010E94530077
:10028000E0913701F0913801E00FF11F80811F925A
:100290008F93DF92CF92FF92EF920E949006C70158
:1002A0000E9453008091370190913801FC01E00FCA
:1002B000F11F82811F928F938FE291E09F938F9322
:1002C000FF92EF920E949006C7010E945300B394E0
:1002D0000FB6F894DEBF0FBECDBF94E09B1508F0BB
:1002E000ADCF8AE090E09A838983CE0101960E9487
:1002F0005300A8960FB6F894DEBF0FBECDBFDF91B6
:10030000CF911F910F91FF90EF90DF90CF90BF9012
:1003100008950E94D505E0913701F091380183B12D
:100320008170878786B182FB882780F9808B89B1AD
:1003300086FB882780F9818B89B185FB882780F926
:10034000828B89B182958170838B86B183FB8827EC
:1003500080F9848B86B185FB882780F9868B86B1EE
:1003600082958170878B83B186958170808F0E9482
:10037000D505E0913701F0913801618D83E10E944C
:100380006206E0913701F0913801628D82E10E94AE
:100390006206E0913701F0913801638D81E10E949E
:1003A0006206E0913701F0913801648D84E10E948A
:1003B0006206E0913701F0913801658D85E10E9478
:1003C0006206E0913701F0913801668D85E00E9468
:1003D0006206E0913701F0913801678D80E10E945B
:1003E0006206E0913701F091380160A183E00E943C
:1003F000620660E086E00E946206E0913701F091BB
:10040000380161A184E00E946206E0913701F09119
:10041000380162A182E00E946206E0913701F0910A
:10042000380163A186E10E946206E0913701F091F4
:10043000380164A187E10E946206E0913701F091E2
:10044000380165A181E00E9462060895F8940E9437
:10045000AC050E94A90590933801809337018CE286
:1004600084B98FEF85B997B1936097B988B992E055
:100470009AB98BB90E9422061092C50088E0809339
:10048000C40086E08093C20088E98093C100E8E65A
:10049000F0E0808187608083EBE6F0E0808183601C
:1004A0008083ECE6F0E080818C638083EDE6F0E011
:1004B0008081806F808387E19EEF90938500809399
:1004C000840085E0809381001092800081E0809319
:1004D0006F0060E080E00E946206E0913701F091D9
:1004E000380111A212A213A214A2E9E6F0E0808161
:1004F000846080838DB382608DBB0E948901789473
:100500000895F894809136018F5F80933601813190
:1005100048F095B184E0892785B91092360182E0D0
:100520000E94690087E19EEF90938500809384008C
:100530000E94890178940895F894E0913701F09130
:10054000380185A1811113C080910001882341F0F9
:1005500093A181E0982791A391A1892782A319C033
:1005600081A183A393A181E0892784A312C08091F4
:100570000001882339F083A181A391A181E089271B
:1005800082A307C091A181E0982793A393A1892713
:1005900084A30E9489019091000181E089278093C2
:1005A0000001789408951F920F920FB60F921124B4
:1005B0000F900FBE0F901F9018951F920F920FB6BD
:1005C0000F9211240F900FBE0F901F9018951F923D
:1005D0000F920FB60F9211242F933F934F935F9377
:1005E0006F937F938F939F93AF93BF93EF93FF93FB
:1005F000CF93DF9300D0CDB7DEB7E0913701F09114
:1006000038018189882359F189B182FB882780F9D3
:10061000898389B183FB882780F98A8399818A81BC
:10062000981303C081E085A301C015A2808D8111BC
:1006300003C00E949C0213C085A1882321F08A81F7
:1006400081110E949C02E0913701F091380185A14F
:10065000811105C08A81811102C00E949C020E9402
:1006600089010F900F90DF91CF91FF91EF91BF9192
:10067000AF919F918F917F916F915F914F913F913A
:100680002F910F900FBE0F901F9018951F920F92F1
:100690000FB60F9211242F933F934F935F936F9355
:1006A0007F938F939F93AF93BF93EF93FF930E949A
:1006B0008102FF91EF91BF91AF919F918F917F91B7
:1006C0006F915F914F913F912F910F900FBE0F90BF
:1006D0001F9018951F920F920FB60F9211242F930F
:1006E0003F934F935F936F937F938F939F93AF93BA
:1006F000BF93EF93FF93F8948091C6000E94690026
:100700007894FF91EF91BF91AF919F918F917F91DD
:100710006F915F914F913F912F910F900FBE0F906E
:100720001F9018951F920F920FB60F9211242F93BE
:100730003F934F935F936F937F938F939F93AF9369
:10074000BF93EF93FF930E94890184E30E946900A5
:10075000FF91EF91BF91AF919F918F917F916F9199
:100760005F914F913F912F910F900FBE0F901F906F
:1007700018951F920F920FB60F9211242F933F934B
:100780004F935F936F937F938F939F93AF93BF9399
:10079000EF93FF930E94890184E30E946900FF9117
:1007A000EF91BF91AF919F918F917F916F915F91E9
:1007B0004F913F912F910F900FBE0F901F90189562
:1007C0001F920F920FB60F9211242F933F934F93C6
:1007D0005F936F937F938F939F93AF93BF93EF93A9
:1007E000FF930E94890184E30E946900FF91EF91C9
:1007F000BF91AF919F918F917F916F915F914F9139
:100800003F912F910F900FBE0F901F901895E9E325
:10081000F1E0958981E08927818F8281811109C06A
:1008200080915501882339F080915601811105C0CE
:1008300005C080E003C080E001C081E0E9E3F1E0B1
:10084000828F8581838F8085848F8385858F868540
:10085000868F9289978F80A30895CF93C0E074C14B
:10086000C1111BC080915601882329F08091570146
:10087000811103C003C080E001C081E02C2F30E073
:10088000482F4170C901880F991F820F931F6091F3
:100890004E01875C9E4F0E94E005C13009F04BC0BD
:1008A00080914C018823B9F080914F018823A9F0F1
:1008B00080914A01811105C080914801811103C0D6
:1008C00003C080E001C081E080FF09C08091500139
:1008D000811107C007C080E005C080E003C080E050
:1008E00001C081E0482F417080914801811108C00A
:1008F00080914D01882321F080914A01811109C026
:1009000080914B01811107C080914E01811105C07A
:1009100005C080E003C081E001C081E02C2F30E001
:10092000682F6170C901880F991F820F931F875C20
:100930009E4F0E94E005C23009F045C080914A01F7
:10094000811105C080914801811103C003C080E07E
:1009500001C081E080FF09C080915001882339F0F7
:1009600080914F01811105C005C080E003C080E087
:1009700001C081E0482F417080914C01882379F0BB
:1009800090914F01992369F090914B01911104C00E
:1009900090914E01992339F0811107C007C080E082
:1009A00005C080E003C080E001C081E02C2F30E072
:1009B000682F6170C901880F991F820F931F875C90
:1009C0009E4F0E94E005C33009F068C080914B0142
:1009D000811106C080914E01882321F081E003C07F
:1009E00081E001C080E080FF1AC080914A01882325
:1009F00029F080914801811103C003C080E001C04B
:100A000081E080FD05C080915001811103C003C0C9
:100A100080E001C081E080FD04C080E003C080E090
:100A200001C081E0482F417080914C01882329F05A
:100A300080914F01811103C003C080E001C081E0BB
:100A400080FF1CC080914801882389F080914D016E
:100A5000811106C080914A01882321F080E003C003
:100A600080E001C081E080FD04C080E003C080E040
:100A700001C081E080FD04C080E003C080E001C0CF
:100A800081E02C2F30E0682F6170C901880F991F19
:100A9000820F931F875C9E4F0E94E005C43009F0CF
:100AA00052C0E9E3F1E040898289811106C080915A
:100AB0004E01882321F081E003C081E001C080E085
:100AC00080FF31C080914801882389F080914D01D9
:100AD000811106C080914A01882321F080E003C083
:100AE00080E001C081E080FD04C080E003C080E0C0
:100AF00001C081E080FF10C080914C01882329F063
:100B000080914F01811103C003C080E001C081E0EA
:100B100080FD04C080E003C080E001C081E080FD72
:100B200004C080E003C080E001C081E02C2F30E0F1
:100B3000682F6170C901880F991F820F931F875C0E
:100B40009E4F0E94E005CF5FC53008F489CECF915B
:100B5000089589E391E008950F931F93CF93DF9356
:100B600000D01F92CDB7DEB700E010E013C0CE0179
:100B700001960E94DA05F801EE0FFF1FE00FF11F4A
:100B8000E75CFE4F89819A81AB8180839183A28348
:100B90000F5F1F4F0530110554F30F900F900F900A
:100BA000DF91CF911F910F9108950E942D040E9413
:100BB00007040895FC0181E0808381838283089586
:100BC000FC01611102C0442349F0411102C081E0DF
:100BD0008283611101C0128260834183089580E0A5
:100BE00090E00E9443090E942602FFCF6EBD0DB423
:100BF00007FEFDCF8EB508950F931F93CF93DF931C
:100C0000062F142F98B1C1E0D0E002C0CC0FDD1F39
:100C10008A95E2F78C2F8095982398B960E481E05B
:100C20000E94F605602F81E00E94F605612F81E0A9
:100C30000E94F60588B1C82BC8B9DF91CF911F91EA
:100C40000F9108958FEF88B983E58CBD40E060E097
:100C500081E00E94FC0540E060E080E00E94FC052D
:100C600040E069E081E00E94FC0540E069E080E04E
:100C70000E94FC0508950F931F93CF93DF93182FC5
:100C8000062F88B1C1E0D0E0012E02C0CC0FDD1FDD
:100C90000A94E2F79C2F9095892388B961E4812F0B
:100CA0000E94F605602F812F0E94F6056FEF812FBD
:100CB0000E94F60598B1C92BC8B9DF91CF911F9159
:100CC0000F9108951F93CF93DF93162F84FBDD2799
:100CD000D0F9C82FCF7069E08D2F0E943B061123F9
:100CE00069F041E050E002C0440F551FCA95E2F799
:100CF000482B69E08D2F0E94FC050EC021E030E0FA
:100D000002C0220F331FCA95E2F72095422F4823D5
:100D100069E08D2F0E94FC05DF91CF911F9108950E
:100D2000AEE0B0E0E6E9F6E00C9459090D891E89C1
:100D300086E08C831A8309838FEF9FE79E838D83E0
:100D4000AE01475E5F4F6F89788DCE0101960E949C
:100D5000B206EF81F885E00FF11F10822E96E4E0D5
:100D60000C947509ABE0B0E0E8EBF6E00C944B09AD
:100D70006C017B018A01FC0117821682838181FF4D
:100D8000CCC1CE0101963C01F6019381F70193FDA0
:100D9000859193FF81917F01882309F4BAC185323F
:100DA00039F493FD859193FF81917F01853229F478
:100DB000B60190E00E94A908E7CF912C212C312C9C
:100DC000FFE1F315D8F08B3279F038F4803279F006
:100DD0008332A1F4232D20611DC08D3261F0803358
:100DE00069F4232D216016C0832D8260382EE32DF7
:100DF000E4603E2E2AC0F32DF8601DC037FC2DC0E4
:100E000020ED280F2A3040F08E32B9F436FC81C133
:100E1000232D2064322E19C036FE06C08AE0989E2B
:100E2000200D1124922E11C0EAE02E9E200D1124D7
:100E3000222EF32DF0623F2E08C08C3621F4832D34
:100E40008068382E02C0883641F4F70193FD859101
:100E500093FF81917F018111B3CF982F9F7D95548E
:100E6000933028F40C5F1F4F9FE399830DC08336A6
:100E700031F0833771F0833509F059C021C0F80192
:100E8000808189830E5F1F4F88248394912C5301A6
:100E900013C02801F2E04F0E511CF801A080B18070
:100EA00036FE03C0692D70E002C06FEF7FEFC50111
:100EB0000E949E084C018201F32DFF773F2E16C041
:100EC000280122E0420E511CF801A080B18036FEBC
:100ED00003C0692D70E002C06FEF7FEFC5010E9473
:100EE00093084C01F32DF0683F2E820133FC1BC0A8
:100EF000822D90E088169906B0F4B60180E290E069
:100F00000E94A9082A94F4CFF50137FC859137FE99
:100F100081915F01B60190E00E94A90821102A94F6
:100F200021E0821A91088114910471F7E8C0843697
:100F300011F0893641F5F80137FE07C060817181F3
:100F4000828193810C5F1F4F08C060817181072EE1
:100F5000000C880B990B0E5F1F4FF32DFF763F2E71
:100F600097FF09C090958095709561957F4F8F4F41
:100F70009F4FF0683F2E2AE030E0A3010E94E50871
:100F8000882E861845C0853731F4232D2F7EB22E4A
:100F90002AE030E025C0932D997FB92E8F36C1F01D
:100FA00018F4883579F0B5C0803719F0883721F00A
:100FB000B0C0E92FE061BE2EB4FE0DC0FB2DF46081
:100FC000BF2E09C034FE0AC0292F2660B22E06C0EB
:100FD00028E030E005C020E130E002C020E132E04E
:100FE000F801B7FE07C060817181828193810C5F37
:100FF0001F4F06C06081718180E090E00E5F1F4F3F
:10100000A3010E94E508882E8618FB2DFF773F2E4E
:1010100036FE0DC0232D2E7FA22E891458F434FEE7
:101020000BC032FC09C0832D8E7EA82E05C0B82CC3
:10103000A32C03C0B82C01C0B92CA4FE0FC0FE0124
:10104000E80DF11D8081803321F49A2D997EA92E1F
:1010500009C0A2FE06C0B394B39404C08A2D86785A
:1010600009F0B394A3FC11C0A0FE06C0B21488F42A
:10107000280C922C9B180EC0B21460F4B60180E2CA
:1010800090E00E94A908B394F7CFB21418F42B187B
:1010900002C0982C212CA4FE10C0B60180E390E081
:1010A0000E94A908A2FE17C0A1FC03C088E790E037
:1010B00002C088E590E0B6010CC08A2D867859F010
:1010C000A1FE02C08BE201C080E2A7FC8DE2B60166
:1010D00090E00E94A908891438F4B60180E390E0FA
:1010E0000E94A9089A94F7CF8A94F301E80DF11DA4
:1010F0008081B60190E00E94A9088110F5CF2220DE
:1011000009F442CEB60180E290E00E94A9082A9438
:10111000F6CFF6018681978102C08FEF9FEF2B9665
:10112000E2E10C946709FC010590615070400110E8
:10113000D8F7809590958E0F9F1F0895FC01615000
:10114000704001900110D8F7809590958E0F9F1FE9
:1011500008950F931F93CF93DF93FB01238121FD0C
:1011600003C08FEF9FEF2CC022FF16C0468157812E
:10117000248135814217530744F4A081B1819D0138
:101180002F5F3F4F318320838C93268137812F5FE0
:101190003F4F3783268314C08B01EC01FB01008491
:1011A000F185E02D0995892BE1F6D80116968D91F0
:1011B0009C911797019617969C938E931697CE0144
:1011C000DF91CF911F910F910895FA01AA2728303E
:1011D00051F1203181F1E8946F936E7F6E5F7F4F04
:1011E0008F4F9F4FAF4FB1E03ED0B4E03CD0670F80
:1011F000781F891F9A1FA11D680F791F8A1F911DD3
:10120000A11D6A0F711D811D911DA11D20D009F422
:1012100068943F912AE0269F11243019305D319364
:10122000DEF6CF010895462F4770405D4193B3E04D
:101230000FD0C9F7F6CF462F4F70405D4A3318F0F4
:10124000495D31FD4052419302D0A9F7EACFB4E0A5
:10125000A6959795879577956795BA95C9F700975D
:101260006105710508959B01AC010A2E06945795FE
:10127000479537952795BA95C9F7620F731F841F55
:10128000951FA01D0895F999FECF92BD81BDF89AD2
:10129000992780B508952F923F924F925F926F9257
:1012A0007F928F929F92AF92BF92CF92DF92EF92F6
:1012B000FF920F931F93CF93DF93CDB7DEB7CA1B77
:1012C000DB0B0FB6F894DEBF0FBECDBF09942A88A2
:1012D000398848885F846E847D848C849B84AA844A
:1012E000B984C884DF80EE80FD800C811B81AA81D7
:1012F000B981CE0FD11D0FB6F894DEBF0FBECDBFA2
:08130000ED010895F894FFCF00
:1013080001446972656374696F6E203D2025640A23
:10131800004F7574707574203D20002564200046C8
:101328006C6970466C6F7073203D20002564002541
:06133800642020200000EB
:00000001FF
