:100000000C9434000C9446000C9446000C9446006A
:100010000C9446000C9446000C9446000C94460048
:100020000C9446000C9446000C9446000C94460038
:100030000C9446000C9446000C9446000C94460028
:100040000C9446000C9446000C9446000C94460018
:100050000C9446000C9446000C9446000C94460008
:100060000C9446000C94460011241FBECFEFD8E03C
:10007000DEBFCDBF21E0A0E0B1E001C01D92A932FA
:10008000B207E1F70E9429010C945F010C94000073
:100090000E94FA000E94F7009093010180930001F2
:1000A0000E948A0008951092C50088E08093C400E1
:1000B00096E09093C2008093C10008956EBD0DB488
:1000C00007FEFDCF8EB508950F931F93CF93DF9357
:1000D000062F142F98B1C1E0D0E002C0CC0FDD1F75
:1000E0008A95E2F78C2F8095982398B960E480E098
:1000F0000E945E00602F80E00E945E00612F80E021
:100100000E945E0088B1C82BC8B9DF91CF911F91C2
:100110000F910895F8948CE284B987B1836087B910
:1001200082E08AB90E9453008FEF88B983E58CBDC5
:1001300040E060E080E00E94640040E060E081E038
:100140000E94640008950F931F93CF93DF93182F9D
:10015000062F88B1C1E0D0E0012E02C0CC0FDD1F18
:100160000A94E2F79C2F9095892388B961E4812F46
:100170000E945E00602F812F0E945E006FEF812F32
:100180000E945E0098B1C92BC8B9DF91CF911F9131
:100190000F9108951F93CF93DF93D82F162F84FBD1
:1001A000CC27C0F969E08C2F0E94A300112369F0CD
:1001B00041E050E002C0440F551FDA95E2F7482BAA
:1001C00069E08C2F0E9464000EC021E030E002C084
:1001D000220F331FDA95E2F72095422F482369E07A
:1001E0008C2F0E946400DF91CF911F91089582E0CF
:1001F00091E008950F931F93CF93DF9300D01F9248
:10020000CDB7DEB700E010E013C0CE0101960E942A
:100210002301F801EE0FFF1FE00FF11FEE5FFE4F0D
:1002200089819A81AB8180839183A2830F5F1F4F65
:100230000530110554F30F900F900F90DF91CF917F
:100240001F910F910895FC0181E080838183828357
:1002500008950E94480088B18B7F88B9329B17C0EF
:1002600061E085E00E94CA0069E080E00E94A3008E
:100270008093C6008091C00085FFFCCF2FEF81EEF8
:1002800094E0215080409040E1F700C0000060E021
:1002900085E00E94CA0069E080E00E94A30080938C
:1002A000C6008091C00085FFFCCF2FEF81EE94E067
:1002B000215080409040E1F700C00000CFCFF8947B
:0202C000FFCF6E
:00000001FF
