S00F0000423339335F56312E737265634E
S11300000C9434000C9477020C94A8020C945703BB
S11300100C947B030C949F030C9451000C9451009A
S11300200C9451000C9451000C9451000C94510008
S11300300C9451000C9407030C9451000C9451003F
S11300400C9481020C9451000C942B030C945100D9
S11300500C9451000C9451000C9451000C945100D8
S11300600C9451000C94510011241FBECFEFD8E022
S1130070DEBFCDBF11E0A0E0B1E0E2E3F0E102C0F9
S113008005900D92A232B107D9F721E0A2E2B1E0C6
S113009001C01D92A334B207E1F70E9484040C94BA
S11300A017080C940000AC0120E030E00EC0FA0107
S11300B0E20FF31F9081992359F09093C600909119
S11300C0C00095FFFCCF2F5F3F4F283231057CF3F2
S11300D00895EF92FF920F931F93CF93DF93CDB7C1
S11300E0DEB7A8970FB6F894DEBF0FBECDBF082FBA
S11300F0F894FE01319688E2DF011D928A95E9F7B2
S11301000233B9F58AE0E7E0F1E0DE0111960190EF
S11301100D928A95E1F7CE0101960E94530011E0F9
S11301201EC0E0912501F0912601E10FF11D8285A9
S11301301F928F9381E191E09F938F93CE0101965B
S11301407C019F938F930E942505C7010E94530051
S11301501F5F0F900F900F900F900F900F9016301D
S113016000F38AE090E09A838983CE0101960E948D
S11301705300033359F51FC0E0912501F091260186
S1130180E10FF11D80811F928F9381E191E09F9394
S11301908F93DE0111967D01BF93AF930E942505D5
S11301A0C7010E9453001F5F0F900F900F900F9094
S11301B00F900F9001C010E01A30F0F28AE090E046
S11301C09A838983CE0101960E9453000433D9F4A3
S11301D0E0912501F0912601838D1F928F9385E193
S11301E091E09F938F938E010F5F1F4F1F930F9387
S11301F00E942505C8010E9453000F900F900F9094
S11302000F900F900F907894A8960FB6F894DEBFD5
S11302100FBECDBFDF91CF911F910F91FF90EF9053
S11302200895809122018F5F80932201813130F003
S113023095B184E0892785B91092220187E19EEF68
S113024090938500809384000895E0912501F091B6
S1130250260183B181708083E0912501F09126010C
S113026086B182FB882780F98183E0912501F09192
S1130270260189B186FB882780F9828389B185FBB1
S1130280882780F9838389B182958170848386B1BC
S113029083FB882780F9858389B1881F8827881F75
S11302A0868386B185FB882780F9878386B182950A
S11302B08170808783B18695817081870E94E9036C
S11302C0E0912501F0912601628583E10E94F70403
S11302D0E0912501F0912601638582E10E94F704F3
S11302E0E0912501F0912601648581E10E94F704E3
S11302F0E0912501F0912601658584E10E94F704CF
S1130300E0912501F0912601668585E10E94F704BC
S1130310E0912501F0912601678585E00E94F704AC
S1130320E0912501F0912601608980E10E94F704A3
S1130330E0912501F0912601618983E00E94F70490
S113034060E086E00E94F704E0912501F091260127
S1130350628984E00E94F704E0912501F09126016E
S1130360638982E00E94F704E0912501F09126015F
S1130370648986E10E94F704E0912501F091260149
S1130380658987E10E94F704E0912501F091260137
S1130390668981E00E94F7040895F8940E94C603D8
S11303A00E94C30390932601809325018CE284B9B3
S11303B08FEF85B997B1936097B988B992E09AB9EC
S11303C08BB90E94B7041092C50088E08093C400E2
S11303D086E08093C20088E98093C100E8E6F0E0FB
S11303E0808187608083EBE6F0E080818360808396
S11303F0ECE6F0E080818C638083EDE6F0E08081C0
S1130400806F808387E19EEF9093850080938400C2
S113041085E0809381001092800081E080936F00DA
S113042014BC15BC80936E0086BD60E080E00E9421
S1130430F704E0912501F0912601128A138A148AA7
S1130440158AE9E6F0E08081846080838DB3826060
S11304508DBB81E30E94690082E30E94690083E30B
S11304600E94690084E30E9469000E94250184E3DC
S11304700E9469007894089561E080E00E94F70486
S113048084E085BDE0912501F091260186898111E2
S113049013C080910001882341F0948981E098275A
S11304A0928B92898927838B19C08289848B948942
S11304B081E08927858B12C080910001882339F05F
S11304C08489828B928981E08927838B07C09289F2
S11304D081E09827948B94898927858B0E94250134
S11304E09091000181E089278093000108951F9273
S11304F00F920FB60F9211240F900FBE0F901F9002
S113050018951F920F920FB60F9211242F933F93B9
S11305104F935F936F937F938F939F93AF93BF9307
S1130520EF93FF9360E080E00E94F70415BCFF9115
S1130530EF91BF91AF919F918F917F916F915F9157
S11305404F913F912F910F900FBE0F901F901895D0
S11305501F920F920FB60F9211242F933F934F9334
S11305605F936F937F938F939F93AF93BF93EF9317
S1130570FF93CF93DF9300D0CDB7DEB7E091250191
S1130580F0912601828181112BC089B182FB8827D9
S113059080F9898389B183FB882780F98A839981CB
S11305A08A81981303C081E0868B01C0168A8185F5
S11305B0811103C00E943C0213C08689882321F064
S11305C08A8181110E943C02E0912501F09126016B
S11305D08689811105C08A81811102C00E943C0272
S11305E00E9425010F900F90DF91CF91FF91EF9121
S11305F0BF91AF919F918F917F916F915F914F9137
S11306003F912F910F900FBE0F901F9018951F923E
S11306100F920FB60F9211242F933F934F935F9332
S11306206F937F938F939F93AF93BF93EF93FF93B6
S11306300E941101FF91EF91BF91AF919F918F9112
S11306407F916F915F914F913F912F910F900FBECA
S11306500F901F9018951F920F920FB60F921124AE
S11306602F933F934F935F936F937F938F939F93B6
S1130670AF93BF93EF93FF938091C6000E946900EC
S1130680FF91EF91BF91AF919F918F917F916F9166
S11306905F914F913F912F910F900FBE0F901F903C
S11306A018950E94250184E30E94690008951F9211
S11306B00F920FB60F9211242F933F934F935F9392
S11306C06F937F938F939F93AF93BF93EF93FF9316
S11306D00E945103FF91EF91BF91AF919F918F9130
S11306E07F916F915F914F913F912F910F900FBE2A
S11306F00F901F9018951F920F920FB60F9211240E
S11307002F933F934F935F936F937F938F939F9315
S1130710AF93BF93EF93FF930E945103FF91EF9127
S1130720BF91AF919F918F917F916F915F914F9105
S11307303F912F910F900FBE0F901F9018951F920D
S11307400F920FB60F9211242F933F934F935F9301
S11307506F937F938F939F93AF93BF93EF93FF9385
S11307600E945103FF91EF91BF91AF919F918F919F
S11307707F916F915F914F913F912F910F900FBE99
S11307800F901F90189587E291E00895E7E2F1E059
S113079081E0828F80910101838F0895E7E2F1E087
S11307A086818287838D982F9170938781FB992707
S11307B090F9948782FB992790F9958783FB992771
S11307C090F996878295817087879381908B818B2E
S11307D00895E7E2F1E0908581E0592F58272181BF
S11307E0822740813281311184C041113EC0309151
S11307F02401332341F060912301662321F0511138
S113080082C0811180C0311106C0332391F0609100
S11308102301662371F060912D0161110AC060917A
S1130820420160FD06C06160609342010E94CE03F4
S1130830089560912301662311F0511104C03323FC
S1130840A1F0882391F081E0809324018093230117
S1130850E1E0F1E093818481E7E2F1E0892B938D7B
S1130860892B838F0E94CE03089580912C018111DE
S113087009C08091010180934201109223011092DA
S113088024013FC080912E01811107C0411105C090
S1130890809102018093420134C080912B01811127
S11308A007C0411105C0809103018093420129C012
S11308B0911108C0809104018093420181E08093EA
S11308C024011FC021110AC0411108C080910501F3
S11308D08093420181E08093230113C080912A0117
S11308E081110FC041110DC0809106018093420116
S11308F008C080910101809342011092240110925A
S113090023010E94CE03089580E090E00E94D8075E
S11309100E94CD01FFCF6EBD0DB407FEFDCF8EB595
S113092008950F931F93CF93DF93062F142F98B13D
S1130930C1E0D0E002C0CC0FDD1F8A95E2F78C2F16
S11309408095982398B960E481E00E948B04602F1D
S113095081E00E948B04612F81E00E948B0488B1A6
S1130960C82BC8B9DF91CF911F910F9108958FEFD4
S113097088B983E58CBD40E060E081E00E94910489
S113098040E060E080E00E94910440E069E081E0A2
S11309900E94910440E069E080E00E94910408957F
S11309A00F931F93CF93DF93182F062F88B1C1E0C5
S11309B0D0E0012E02C0CC0FDD1F0A94E2F79C2F79
S11309C09095892388B961E4812F0E948B04602F5C
S11309D0812F0E948B046FEF812F0E948B0498B1AA
S11309E0C92BC8B9DF91CF911F910F9108951F931F
S11309F0CF93DF93162F84FBDD27D0F9C82FCF7058
S1130A0069E08D2F0E94D004112369F041E050E089
S1130A1002C0440F551FCA95E2F7482B69E08D2F99
S1130A200E9491040EC021E030E002C0220F331F67
S1130A30CA95E2F72095422F482369E08D2F0E9442
S1130A409104DF91CF911F910895AEE0B0E0EBE205
S1130A50F5E00C94EE070D891E8986E08C831A83D9
S1130A6009838FEF9FE79E838D83AE01475E5F4FBF
S1130A706F89788DCE0101960E944705EF81F88534
S1130A80E00FF11F10822E96E4E00C940A08ABE00C
S1130A90B0E0EDE4F5E00C94E0076C017B018A0121
S1130AA0FC0117821682838181FFCCC1CE0101969D
S1130AB03C01F6019381F70193FD859193FF8191A8
S1130AC07F01882309F4BAC1853239F493FD8591F5
S1130AD093FF81917F01853229F4B60190E00E9451
S1130AE03E07E7CF912C212C312CFFE1F315D8F0F0
S1130AF08B3279F038F4803279F08332A1F4232DEB
S1130B0020611DC08D3261F0803369F4232D216092
S1130B1016C0832D8260382EE32DE4603E2E2AC059
S1130B20F32DF8601DC037FC2DC020ED280F2A30AE
S1130B3040F08E32B9F436FC81C1232D2064322E6C
S1130B4019C036FE06C08AE0989E200D1124922E0C
S1130B5011C0EAE02E9E200D1124222EF32DF06206
S1130B603F2E08C08C3621F4832D8068382E02C0B5
S1130B70883641F4F70193FD859193FF81917F01BC
S1130B808111B3CF982F9F7D9554933028F40C5F37
S1130B901F4F9FE399830DC0833631F0833771F083
S1130BA0833509F059C021C0F801808189830E5F23
S1130BB01F4F88248394912C530113C02801F2E021
S1130BC04F0E511CF801A080B18036FE03C0692D80
S1130BD070E002C06FEF7FEFC5010E9433074C0144
S1130BE08201F32DFF773F2E16C0280122E0420E2A
S1130BF0511CF801A080B18036FE03C0692D70E05D
S1130C0002C06FEF7FEFC5010E9428074C01F32D4E
S1130C10F0683F2E820133FC1BC0822D90E08816C1
S1130C209906B0F4B60180E290E00E943E072A944F
S1130C30F4CFF50137FC859137FE81915F01B60150
S1130C4090E00E943E0721102A9421E0821A910824
S1130C508114910471F7E8C0843611F0893641F5A6
S1130C60F80137FE07C060817181828193810C5F36
S1130C701F4F08C060817181072E000C880B990BEF
S1130C800E5F1F4FF32DFF763F2E97FF09C09095FF
S1130C908095709561957F4F8F4F9F4FF0683F2EE1
S1130CA02AE030E0A3010E947A07882E861845C006
S1130CB0853731F4232D2F7EB22E2AE030E025C073
S1130CC0932D997FB92E8F36C1F018F4883579F0B9
S1130CD0B5C0803719F0883721F0B0C0E92FE06142
S1130CE0BE2EB4FE0DC0FB2DF460BF2E09C034FE31
S1130CF00AC0292F2660B22E06C028E030E005C0C5
S1130D0020E130E002C020E132E0F801B7FE07C084
S1130D1060817181828193810C5F1F4F06C0608165
S1130D20718180E090E00E5F1F4FA3010E947A075B
S1130D30882E8618FB2DFF773F2E36FE0DC0232DFF
S1130D402E7FA22E891458F434FE0BC032FC09C045
S1130D50832D8E7EA82E05C0B82CA32C03C0B82CDE
S1130D6001C0B92CA4FE0FC0FE01E80DF11D808165
S1130D70803321F49A2D997EA92E09C0A2FE06C0C3
S1130D80B394B39404C08A2D867809F0B394A3FC79
S1130D9011C0A0FE06C0B21488F4280C922C9B1833
S1130DA00EC0B21460F4B60180E290E00E943E07E7
S1130DB0B394F7CFB21418F42B1802C0982C212C3A
S1130DC0A4FE10C0B60180E390E00E943E07A2FE9C
S1130DD017C0A1FC03C088E790E002C088E590E05A
S1130DE0B6010CC08A2D867859F0A1FE02C08BE2B0
S1130DF001C080E2A7FC8DE2B60190E00E943E07AC
S1130E00891438F4B60180E390E00E943E079A9476
S1130E10F7CF8A94F301E80DF11D8081B60190E0CB
S1130E200E943E078110F5CF222009F442CEB6017C
S1130E3080E290E00E943E072A94F6CFF601868174
S1130E40978102C08FEF9FEF2B96E2E10C94FC0791
S1130E50FC010590615070400110D8F78095909581
S1130E608E0F9F1F0895FC01615070400190011086
S1130E70D8F7809590958E0F9F1F08950F931F9319
S1130E80CF93DF93FB01238121FD03C08FEF9FEFFD
S1130E902CC022FF16C04681578124813581421718
S1130EA0530744F4A081B1819D012F5F3F4F3183EB
S1130EB020838C93268137812F5F3F4F378326838E
S1130EC014C08B01EC01FB010084F185E02D099530
S1130ED0892BE1F6D80116968D919C91179701966E
S1130EE017969C938E931697CE01DF91CF911F9105
S1130EF00F910895FA01AA27283051F1203181F188
S1130F00E8946F936E7F6E5F7F4F8F4F9F4FAF4F0D
S1130F10B1E03ED0B4E03CD0670F781F891F9A1F20
S1130F20A11D680F791F8A1F911DA11D6A0F711DD4
S1130F30811D911DA11D20D009F468943F912AE0E0
S1130F40269F11243019305D3193DEF6CF010895C8
S1130F50462F4770405D4193B3E00FD0C9F7F6CFF9
S1130F60462F4F70405D4A3318F0495D31FD4052C1
S1130F70419302D0A9F7EACFB4E0A6959795879557
S1130F8077956795BA95C9F7009761057105089536
S1130F909B01AC010A2E06945795479537952795E2
S1130FA0BA95C9F7620F731F841F951FA01D08957A
S1130FB0F999FECF92BD81BDF89A992780B508951D
S1130FC02F923F924F925F926F927F928F929F9255
S1130FD0AF92BF92CF92DF92EF92FF920F931F9343
S1130FE0CF93DF93CDB7DEB7CA1BDB0B0FB6F894F4
S1130FF0DEBF0FBECDBF09942A88398848885F8434
S11310006E847D848C849B84AA84B984C884DF80A4
S1131010EE80FD800C811B81AA81B981CE0FD11D88
S11310200FB6F894DEBF0FBECDBFED010895F8945E
S1051030FFCFEC
S1131032010107030E10094F7574707574203D2069
S113104200256420005374617465203D2025780ACC
S1051052000098
S9030000FC
