:100000000C9434000C9493020C94A7020C945603A5
:100010000C947A030C949E030C9451000C945100A0
:100020000C9451000C9451000C9451000C9451000C
:100030000C9451000C9406030C9451000C94510044
:100040000C949D020C9451000C942A030C945100C2
:100050000C9451000C9451000C9451000C945100DC
:100060000C9451000C94510011241FBECFEFD8E026
:10007000DEBFCDBF11E0A0E0B1E0E0E3F0E102C0FF
:1000800005900D92A233B107D9F721E0A2E3B1E0C8
:1000900001C01D92A335B207E1F70E9483040C94BE
:1000A00016080C940000AC0120E030E00EC0FA010C
:1000B000E20FF31F9081992359F09093C60090911D
:1000C000C00095FFFCCF2F5F3F4F283231057CF3F6
:1000D0000895809132018F5F80933201813130F039
:1000E00095B184E0892785B91092320187E19EEFAE
:1000F00090938500809384000895E0913501F091FC
:10010000360183B181708083E0913501F091360131
:1001100086B182FB882780F98183E0913501F091D7
:10012000360189B186FB882780F9828389B185FBF6
:10013000882780F9838389B182958170848386B111
:1001400083FB882780F9858386B185FB882780F922
:10015000878386B182958170808783B1869581700F
:1001600081870E94E803E0913501F09136016285B4
:1001700083E10E94F604E0913501F0913601638538
:1001800082E10E94F604E0913501F0913601648528
:1001900081E10E94F604E0913501F0913601658518
:1001A00084E10E94F604E0913501F0913601668504
:1001B00085E10E94F604E0913501F09136016785F2
:1001C00085E00E94F604E0913501F09136016089E6
:1001D00080E10E94F604E0913501F09136016189D9
:1001E00083E00E94F60460E086E00E94F604E0915D
:1001F0003501F0913601628984E00E94F604E091B5
:100200003501F0913601638982E00E94F604E091A5
:100210003501F0913601648986E10E94F604E0918F
:100220003501F0913601658987E10E94F604E0917D
:100230003501F0913601668981E00E94F604089547
:10024000EF92FF920F931F93CF93DF93CDB7DEB75B
:10025000A8970FB6F894DEBF0FBECDBF082FF89455
:10026000FE01319688E2DF011D928A95E9F780ED63
:10027000800F823030F5E0913501F091360181E058
:10028000003309F480E086830E947D00E09135010F
:10029000F091360186811F928F9387E091E09F93C2
:1002A0008F93CE0101967C019F938F930E9424052A
:1002B000C7010E9453000F900F900F900F900F9066
:1002C0000F900233B9F58AE0E7E1F1E0DE01119623
:1002D00001900D928A95E1F7CE0101960E9453009C
:1002E00011E01EC0E0913501F0913601E10FF11DE2
:1002F00082851F928F9381E291E09F938F93DE011D
:1003000011967D01BF93AF930E942405C7010E94FF
:1003100053001F5F0F900F900F900F900F900F9052
:10032000163000F38AE090E09A838983CE0101962B
:100330000E945300033359F51FC0E0913501F0913D
:100340003601E10FF11D80811F928F9381E291E0D0
:100350009F938F93CE0101967C019F938F930E9470
:100360002405C7010E9453001F5F0F900F900F904C
:100370000F900F900F9001C010E01A30F0F28AE059
:1003800090E09A838983CE0101960E945300043342
:10039000D9F4E0913501F0913601838D1F928F934E
:1003A00085E291E09F938F938E010F5F1F4F1F9304
:1003B0000F930E942405C8010E9453000F900F90D4
:1003C0000F900F900F900F907894A8960FB6F89416
:1003D000DEBF0FBECDBFDF91CF911F910F91FF9078
:1003E000EF900895F8940E94C5030E94C203909371
:1003F0003601809335018CE284B98FEF85B997B1CE
:10040000936097B988B992E09AB98BB90E94B60403
:100410001092C50088E08093C40086E08093C200FB
:1004200088E98093C100E8E6F0E0808187608083FE
:10043000EBE6F0E0808183608083ECE6F0E0808191
:100440008C638083EDE6F0E08081806F808387E1BC
:100450009EEF909385008093840085E080938100D7
:100460001092800081E080936F0060E080E00E9445
:10047000F604E0913501F0913601128A138A148A4C
:10048000158AE9E6F0E08081846080838DB3826024
:100490008DBB81E30E94200182E30E94200183E35F
:1004A0000E94200184E30E9420010E947D0084E3D9
:1004B0000E94200178940895F894E0913501F0911C
:1004C00036018689811113C080910001882341F093
:1004D000948981E09827928B92898927838B19C010
:1004E0008289848B948981E08927858B12C08091D1
:1004F0000001882339F08489828B928981E08927E1
:10050000838B07C0928981E09827948B94898927EF
:10051000858B0E947D009091000181E08927809366
:100520000001789408951F920F920FB60F92112434
:100530000F900FBE0F901F9018951F920F920FB63D
:100540000F9211240F900FBE0F901F9018951F92BD
:100550000F920FB60F9211242F933F934F935F93F7
:100560006F937F938F939F93AF93BF93EF93FF937B
:10057000CF93DF9300D0CDB7DEB7E0913501F09196
:1005800036018281882359F189B182FB882780F95D
:10059000898389B183FB882780F98A8399818A813D
:1005A000981303C081E0868B01C0168A8185811172
:1005B00003C00E945C0213C08689882321F08A81CF
:1005C00081110E945C02E0913501F091360186892B
:1005D000811105C08A81811102C00E945C020E94C3
:1005E0007D000F900F90DF91CF91FF91EF91BF9120
:1005F000AF919F918F917F916F915F914F913F91BB
:100600002F910F900FBE0F901F9018951F920F9271
:100610000FB60F9211242F933F934F935F936F93D5
:100620007F938F939F93AF93BF93EF93FF930E941A
:100630006900FF91EF91BF91AF919F918F917F9151
:100640006F915F914F913F912F910F900FBE0F903F
:100650001F9018951F920F920FB60F9211242F938F
:100660003F934F935F936F937F938F939F93AF933A
:10067000BF93EF93FF938091C6000E942001FF91EA
:10068000EF91BF91AF919F918F917F916F915F910A
:100690004F913F912F910F900FBE0F901F90189583
:1006A0000E947D0084E30E94200108951F920F9212
:1006B0000FB60F9211242F933F934F935F936F9335
:1006C0007F938F939F93AF93BF93EF93FF930E947A
:1006D0005003FF91EF91BF91AF919F918F917F91C7
:1006E0006F915F914F913F912F910F900FBE0F909F
:1006F0001F9018951F920F920FB60F9211242F93EF
:100700003F934F935F936F937F938F939F93AF9399
:10071000BF93EF93FF930E945003FF91EF91BF911E
:10072000AF919F918F917F916F915F914F913F9189
:100730002F910F900FBE0F901F9018951F920F9240
:100740000FB60F9211242F933F934F935F936F93A4
:100750007F938F939F93AF93BF93EF93FF930E94E9
:100760005003FF91EF91BF91AF919F918F917F9136
:100770006F915F914F913F912F910F900FBE0F900E
:100780001F90189587E391E00895E7E3F1E081E099
:10079000828F80910101838F0895E7E3F1E08681E4
:1007A0008287838D982F9170938781FB992790F989
:1007B000948782FB992790F9958783FB992790F975
:1007C00096878295817087879381908B818B08951E
:1007D000E7E3F1E0908581E0592F582721818227B6
:1007E00040813281311184C041113EC030913401C9
:1007F000332341F060913301662321F0511182C00F
:10080000811180C0311106C0332391F06091330112
:10081000662371F060913D0161110AC0609152013F
:1008200060FD06C06160609352010E94CD0308958F
:1008300060913301662311F0511104C03323A1F0FC
:10084000882391F081E08093340180933301E1E0CB
:10085000F1E093818481E7E3F1E0892B938D892B8B
:10086000838F0E94CD03089580913C01811109C0BE
:100870008091010180935201109233011092340152
:100880003FC080913E01811107C0411105C0809198
:1008900002018093520134C080913B01811107C055
:1008A000411105C0809103018093520129C091112B
:1008B00008C0809104018093520181E0809334014B
:1008C0001FC021110AC0411108C080910501809309
:1008D000520181E08093330113C080913A0181116C
:1008E0000FC041110DC0809106018093520108C0D4
:1008F00080910101809352011092340110923301D2
:100900000E94CD03089580E090E00E94D7070E94E6
:10091000F201FFCF6EBD0DB407FEFDCF8EB5089579
:100920000F931F93CF93DF93062F142F98B1C1E03D
:10093000D0E002C0CC0FDD1F8A95E2F78C2F8095A6
:10094000982398B960E481E00E948A04602F81E0D6
:100950000E948A04612F81E00E948A0488B1C82B1A
:10096000C8B9DF91CF911F910F9108958FEF88B98A
:1009700083E58CBD40E060E081E00E94900440E0AF
:1009800060E080E00E94900440E069E081E00E9425
:10099000900440E069E080E00E94900408950F9385
:1009A0001F93CF93DF93182F062F88B1C1E0D0E0BB
:1009B000012E02C0CC0FDD1F0A94E2F79C2F909508
:1009C000892388B961E4812F0E948A04602F812FD6
:1009D0000E948A046FEF812F0E948A0498B1C92B6C
:1009E000C8B9DF91CF911F910F9108951F93CF93B5
:1009F000DF93162F84FBDD27D0F9C82FCF7069E075
:100A00008D2F0E94CF04112369F041E050E002C015
:100A1000440F551FCA95E2F7482B69E08D2F0E94BD
:100A200090040EC021E030E002C0220F331FCA95AF
:100A3000E2F72095422F482369E08D2F0E94900411
:100A4000DF91CF911F910895AEE0B0E0EAE2F5E0CA
:100A50000C94ED070D891E8986E08C831A83098327
:100A60008FEF9FE79E838D83AE01475E5F4F6F8957
:100A7000788DCE0101960E944605EF81F885E00F42
:100A8000F11F10822E96E4E00C940908ABE0B0E070
:100A9000ECE4F5E00C94DF076C017B018A01FC01BA
:100AA00017821682838181FFCCC1CE0101963C0161
:100AB000F6019381F70193FD859193FF81917F0169
:100AC000882309F4BAC1853239F493FD859193FFE7
:100AD00081917F01853229F4B60190E00E943D07A3
:100AE000E7CF912C212C312CFFE1F315D8F08B327C
:100AF00079F038F4803279F08332A1F4232D20612B
:100B00001DC08D3261F0803369F4232D216016C041
:100B1000832D8260382EE32DE4603E2E2AC0F32D13
:100B2000F8601DC037FC2DC020ED280F2A3040F0A2
:100B30008E32B9F436FC81C1232D2064322E19C0C7
:100B400036FE06C08AE0989E200D1124922E11C018
:100B5000EAE02E9E200D1124222EF32DF0623F2E6E
:100B600008C08C3621F4832D8068382E02C0883668
:100B700041F4F70193FD859193FF81917F018111EC
:100B8000B3CF982F9F7D9554933028F40C5F1F4F5F
:100B90009FE399830DC0833631F0833771F083353D
:100BA00009F059C021C0F801808189830E5F1F4F71
:100BB00088248394912C530113C02801F2E04F0E36
:100BC000511CF801A080B18036FE03C0692D70E091
:100BD00002C06FEF7FEFC5010E9432074C01820116
:100BE000F32DFF773F2E16C0280122E0420E511C44
:100BF000F801A080B18036FE03C0692D70E002C00C
:100C00006FEF7FEFC5010E9427074C01F32DF068BD
:100C10003F2E820133FC1BC0822D90E0881699067E
:100C2000B0F4B60180E290E00E943D072A94F4CF30
:100C3000F50137FC859137FE81915F01B60190E0A7
:100C40000E943D0721102A9421E0821A9108811404
:100C5000910471F7E8C0843611F0893641F5F80146
:100C600037FE07C060817181828193810C5F1F4FC5
:100C700008C060817181072E000C880B990B0E5FF4
:100C80001F4FF32DFF763F2E97FF09C0909580955B
:100C9000709561957F4F8F4F9F4FF0683F2E2AE0F0
:100CA00030E0A3010E947907882E861845C0853759
:100CB00031F4232D2F7EB22E2AE030E025C0932D73
:100CC000997FB92E8F36C1F018F4883579F0B5C008
:100CD000803719F0883721F0B0C0E92FE061BE2ECF
:100CE000B4FE0DC0FB2DF460BF2E09C034FE0AC057
:100CF000292F2660B22E06C028E030E005C020E192
:100D000030E002C020E132E0F801B7FE07C06081A8
:100D10007181828193810C5F1F4F06C06081718158
:100D200080E090E00E5F1F4FA3010E947907882E9C
:100D30008618FB2DFF773F2E36FE0DC0232D2E7F0C
:100D4000A22E891458F434FE0BC032FC09C0832D46
:100D50008E7EA82E05C0B82CA32C03C0B82C01C0D1
:100D6000B92CA4FE0FC0FE01E80DF11D8081803377
:100D700021F49A2D997EA92E09C0A2FE06C0B39433
:100D8000B39404C08A2D867809F0B394A3FC11C0F3
:100D9000A0FE06C0B21488F4280C922C9B180EC03A
:100DA000B21460F4B60180E290E00E943D07B39473
:100DB000F7CFB21418F42B1802C0982C212CA4FEE3
:100DC00010C0B60180E390E00E943D07A2FE17C06C
:100DD000A1FC03C088E790E002C088E590E0B6017E
:100DE0000CC08A2D867859F0A1FE02C08BE201C0AA
:100DF00080E2A7FC8DE2B60190E00E943D078914D5
:100E000038F4B60180E390E00E943D079A94F7CF52
:100E10008A94F301E80DF11D8081B60190E00E94F3
:100E20003D078110F5CF222009F442CEB60180E2C1
:100E300090E00E943D072A94F6CFF60186819781C3
:100E400002C08FEF9FEF2B96E2E10C94FB07FC01B1
:100E50000590615070400110D8F7809590958E0FE5
:100E60009F1F0895FC016150704001900110D8F758
:100E7000809590958E0F9F1F08950F931F93CF938A
:100E8000DF93FB01238121FD03C08FEF9FEF2CC077
:100E900022FF16C0468157812481358142175307AE
:100EA00044F4A081B1819D012F5F3F4F31832083A6
:100EB0008C93268137812F5F3F4F3783268314C061
:100EC0008B01EC01FB010084F185E02D0995892B54
:100ED000E1F6D80116968D919C9117970196179679
:100EE0009C938E931697CE01DF91CF911F910F9116
:100EF0000895FA01AA27283051F1203181F1E894B0
:100F00006F936E7F6E5F7F4F8F4F9F4FAF4FB1E0FC
:100F10003ED0B4E03CD0670F781F891F9A1FA11DF7
:100F2000680F791F8A1F911DA11D6A0F711D811DF8
:100F3000911DA11D20D009F468943F912AE0269FBD
:100F400011243019305D3193DEF6CF010895462F1C
:100F50004770405D4193B3E00FD0C9F7F6CF462FFD
:100F60004F70405D4A3318F0495D31FD4052419366
:100F700002D0A9F7EACFB4E0A69597958795779523
:100F80006795BA95C9F700976105710508959B01AA
:100F9000AC010A2E06945795479537952795BA9533
:100FA000C9F7620F731F841F951FA01D0895F9993B
:100FB000FECF92BD81BDF89A992780B508952F92F2
:100FC0003F924F925F926F927F928F929F92AF92D9
:100FD000BF92CF92DF92EF92FF920F931F93CF9326
:100FE000DF93CDB7DEB7CA1BDB0B0FB6F894DEBFBD
:100FF0000FBECDBF09942A88398848885F846E84E3
:101000007D848C849B84AA84B984C884DF80EE802C
:10101000FD800C811B81AA81B981CE0FD11D0FB635
:10102000F894DEBF0FBECDBFED010895F894FFCF59
:10103000010107030E1009446972656374696F6EDC
:10104000203D2025640A004F7574707574203D2082
:1010500000256420005374617465203D2025780AC2
:0210600000008E
:00000001FF
