S00F0000423339335F56312E737265634E
S11300000C9434000C9476010C948A010C94EB014A
S11300100C940F020C9433020C9446000C9446008A
S11300200C9446000C9446000C9446000C94460034
S11300300C9446000C949F010C9446000C944600CA
S11300400C9446000C9446000C94C3010C94460096
S11300500C9446000C9446000C9446000C94460004
S11300600C9446000C94460011241FBECFEFD8E038
S1130070DEBFCDBF21E0A0E0B1E001C01D92AA32F5
S1130080B207E1F70E94D4040C9472050C940000AA
S11300901092C50088E08093C40086E08093C2007B
S11300A088E98093C100089520E030E00FC0E0911A
S11300B00101F0910201E20FF31F818D8093C600CC
S11300C08091C00085FFFCCF2F5F3F4F2E3031055C
S11300D074F3089587E19EEF9093850080938400E4
S11300E085E0809381001092800081E080936F000E
S11300F00895F8940E948F040E948C049093020146
S1130100809301018CE284B98FEF85B997B1936034
S113011097B988B992E09AB98BB90E9448000E94B5
S113012004050E946A007894E9E6F0E08081836027
S1130130808380818C6080838DB383608DBBE8E68F
S1130140F0E0808187608083EBE6F0E0808183606B
S11301508083ECE6F0E080818C638083EDE6F0E060
S11301608081806F80830895E0910101F091020104
S113017083B18170878786B182FB882780F9808B61
S113018089B186FB882780F9818B89B185FB882713
S113019080F9828B89B182958170838B86B183FBD0
S11301A0882780F9848B89B1881F8827881F858BCD
S11301B086B185FB882780F9868B89B18295817009
S11301C0878B83B186958170808F0E94B804E091FB
S11301D00101F0910201618D83E10E944405E091E7
S11301E00101F0910201628D82E10E944405E091D7
S11301F00101F0910201638D81E10E944405E091C7
S11302000101F0910201648D84E10E944405E091B2
S11302100101F0910201658D85E10E944405E091A0
S11302200101F0910201668D85E00E944405E09190
S11302300101F0910201678D80E10E944405E09183
S11302400101F091020160A183E00E944405E09164
S11302500101F091020161A184E00E944405E09152
S11302600101F091020162A182E00E944405E09143
S11302700101F091020163A186E10E944405E0912D
S11302800101F091020164A187E10E944405E0911B
S11302900101F091020165A181E00E944405E09111
S11302A00101F091020166A180E00E94440560E032
S11302B086E00E9444050895F8940E94B400809159
S11302C000018F5F80930001813140F095B184E09B
S11302D0892785B9109200010E94540087E19EEF9E
S11302E09093850080938400789408951F920F92D0
S11302F00FB60F9211248F93F8941092C600809138
S1130300C00085FFFCCF78948F910F900FBE0F90A3
S11303101F9018951F920F920FB60F9211248F936E
S1130320F89481E08093C6008091C00085FFFCCFE3
S113033078948F910F900FBE0F901F9018951F9275
S11303400F920FB60F9211242F933F934F935F9305
S11303506F937F938F939F93AF93BF93EF93FF9389
S11303600E945C01FF91EF91BF91AF919F918F919A
S11303707F916F915F914F913F912F910F900FBE9D
S11303800F901F9018951F920F920FB60F92112481
S11303902F933F934F935F936F937F938F939F9389
S11303A0AF93BF93EF93FF93F8948091C6000E949C
S11303B054007894FF91EF91BF91AF919F918F91E9
S11303C07F916F915F914F913F912F910F900FBE4D
S11303D00F901F9018951F920F920FB60F92112431
S11303E02F933F934F935F936F937F938F939F9339
S11303F0AF93BF93EF93FF930E94B400FF91EF91EB
S1130400BF91AF919F918F917F916F915F914F9128
S11304103F912F910F900FBE0F901F9018951F9230
S11304200F920FB60F9211242F933F934F935F9324
S11304306F937F938F939F93AF93BF93EF93FF93A8
S11304400E94B400FF91EF91BF91AF919F918F9162
S11304507F916F915F914F913F912F910F900FBEBC
S11304600F901F9018951F920F920FB60F921124A0
S11304702F933F934F935F936F937F938F939F93A8
S1130480AF93BF93EF93FF930E94B400FF91EF915A
S1130490BF91AF919F918F917F916F915F914F9198
S11304A03F912F910F900FBE0F901F90189580E0F1
S11304B081C0811109C0E82FF0E02091180191E07A
S11304C09227ED5FFE4F918F8130E1F4E82FF0E049
S11304D090910501992381F090911F01992329F0AE
S11304E090912001911103C003C090E001C091E0FC
S11304F090FD04C090E003C090E001C091E0ED5F86
S1130500FE4F918F823039F4E82FF0E0909108018A
S1130510ED5FFE4F918F833039F4E82FF0E0909136
S11305200B01ED5FFE4F918F843039F4E82FF0E03A
S113053090910E01ED5FFE4F918F863039F4E82FD4
S1130540F0E090911501ED5FFE4F918F873039F403
S1130550E82FF0E090911101ED5FFE4F918F88300C
S113056029F4E82FF0E0ED5FFE4F118E893029F475
S1130570E82FF0E0ED5FFE4F118E8A3029F4E82F6A
S1130580F0E0ED5FFE4F118E8B3029F4E82FF0E0A0
S1130590ED5FFE4F118E8C3029F4E82FF0E0ED5F13
S11305A0FE4F118E8D3029F4E82FF0E0ED5FFE4F01
S11305B0118E8F5F8E3008F47CCF0895CF93C0E006
S11305C0A6C1C1111BC080912001882329F080910C
S11305D01F01811103C003C080E001C081E02C2F02
S11305E030E0482F4170C901880F991F820F931F73
S11305F0609118018D5F9E4F0E94C304C13009F0C1
S113060068C080911601882329F080911901811115
S113061003C003C080E001C081E080FF1AC0809164
S11306201401882329F080911201811103C003C0B1
S113063080E001C081E080FD05C080911A01811134
S113064003C003C080E001C081E080FD04C080E0FD
S113065003C080E001C081E0482F41708091120105
S1130660882389F080911701811106C080911401BB
S1130670882321F080E003C080E001C081E080FD98
S113068004C080E003C080E001C081E080FF11C0AD
S113069080911501811106C080911801882321F0F1
S11306A081E003C081E001C080E080FD04C080E0FF
S11306B003C080E001C081E02C2F30E0682F61701E
S11306C0C901880F991F820F931F8D5F9E4F0E944F
S11306D0C304C23009F05AC080911401882329F060
S11306E080911201811103C003C080E001C081E048
S11306F080FD05C080911A01811103C003C080E010
S113070001C081E080FF05C080911901811103C0FF
S113071003C080E001C081E0482F41709091160130
S1130720992329F080911901811103C003C080E04D
S113073001C081E080FF1AC080911501811106C0BB
S113074080911801882321F081E003C081E001C079
S113075080E080FF04C0911104C080E003C080E009
S113076001C081E080FD04C080E003C080E001C0DE
S113077081E02C2F30E0682F6170C901880F991F28
S1130780820F931F8D5F9E4F0E94C304C33009F0F4
S113079068C080911501811106C0809118018823D9
S11307A021F081E003C081E001C080E080FF1AC035
S11307B080911401882329F080911201811103C0D2
S11307C003C080E001C081E080FD05C080911A0172
S11307D0811103C003C080E001C081E080FD04C03A
S11307E080E003C080E001C081E0482F4170809127
S11307F01601882329F080911901811103C003C0D7
S113080080E001C081E080FF1CC080911201882338
S113081089F080911701811106C080911401882309
S113082021F080E003C080E001C081E080FD04C0CD
S113083080E003C080E001C081E080FD04C080E06E
S113084003C080E001C081E02C2F30E0682F61708C
S1130850C901880F991F820F931F8D5F9E4F0E94BD
S1130860C304C43009F052C0E3E0F1E04089828956
S1130870811106C080911801882321F081E003C012
S113088081E001C080E080FF31C0809112018823A3
S113089089F080911701811106C080911401882389
S11308A021F080E003C080E001C081E080FD04C04D
S11308B080E003C080E001C081E080FF10C080912F
S11308C01601882329F080911901811103C003C006
S11308D080E001C081E080FD04C080E003C080E0CE
S11308E001C081E080FD04C080E003C080E001C05D
S11308F081E02C2F30E0682F6170C901880F991FA7
S1130900820F931F8D5F9E4F0E94C304CF5FC5303B
S113091008F457CECF91089583E091E008950F93A2
S11309201F93CF93DF9300D01F92CDB7DEB700E0C3
S113093010E013C0CE0101960E94BD04F801EE0F31
S1130940FF1FE00FF11FED5FFE4F89819A81AB819C
S113095080839183A2830F5F1F4F0530110554F3E9
S11309600F900F900F90DF91CF911F910F910895E9
S11309700E94DE020E9457020895FC0181E08083F8
S1130980818382830895FC01662321F08081811193
S113099001C01282442329F08181811102C081E0C7
S11309A082836083418308950E9479007894FFCF05
S11309B06EBD0DB407FEFDCF8EB508950F931F9342
S11309C0CF93DF93062F142F98B1C1E0D0E002C07B
S11309D0CC0FDD1F8A95E2F78C2F8095982398B968
S11309E060E481E00E94D804602F81E00E94D80472
S11309F0612F81E00E94D80488B1C82BC8B9DF9167
S1130A00CF911F910F9108958FEF88B983E58CBD25
S1130A1040E060E081E00E94DE0440E060E080E0CD
S1130A200E94DE0440E069E081E00E94DE0440E0D0
S1130A3069E080E00E94DE0408950F931F93CF9332
S1130A40DF93182F062F88B1C1E0D0E0012E02C039
S1130A50CC0FDD1F0A94E2F79C2F9095892388B967
S1130A6061E4812F0E94D804602F812F0E94D80452
S1130A706FEF812F0E94D80498B1C92BC8B9DF91B8
S1130A80CF911F910F9108951F93CF93DF93162F4A
S1130A9084FBDD27D0F9C82FCF7069E08D2F0E9429
S1130AA01D05112369F041E050E002C0440F551FB9
S1130AB0CA95E2F7482B69E08D2F0E94DE040EC030
S1130AC021E030E002C0220F331FCA95E2F72095DF
S1130AD0422F482369E08D2F0E94DE04DF91CF91DD
S10B0AE01F910895F894FFCF63
S9030000FC
