S00F0000423339335F56312E737265634E
S11300000C9434000C9476020C94A2020C943103E8
S11300100C945E030C948B030C9446000C944600E1
S11300200C9446000C9446000C9446000C94460034
S11300300C9446000C94D1020C9446000C94460097
S11300400C9446000C9446000C94FE020C9446005A
S11300500C9446000C9446000C9446000C94460004
S11300600C9446000C94460011241FBECFEFD8E038
S1130070DEBFCDBF21E0A0E0B1E001C01D92AA32F5
S1130080B207E1F70E9423070C9445080C94000082
S1130090CF93DF9300D0CDB7DEB7F8940E94C103AD
S11300A00E94B803909302018093010184E290E0DE
S11300B02CE2FC01208385E290E02FEFFC012083F9
S11300C087E290E027E230E0F90120812360FC011F
S11300D0208388E290E02FEFFC0120838AE290E005
S11300E022E0FC0120838BE290E02FEFFC012083CF
S11300F00E942A0788E090E09A83898385EC90E047
S113010029813A81232F3327FC01208384EC90E05A
S11301102981FC01208382EC90E026E0FC0120830D
S113012081EC90E028E9FC01208384E890E027E159
S11301303EEFFC013183208381E890E025E0FC015F
S1130140208380E890E0FC0110828FE690E021E0BB
S1130150FC01208389E690E029E630E0F901208162
S11301602360FC01208389E690E029E630E0F90170
S113017020812C60FC0120838DE390E02DE330E0AE
S1130180F90120812360FC012083789400000F9002
S11301900F90DF91CF910895CF93DF9300D0CDB727
S11301A0DEB71A82198220C086EC90E040910101EA
S11301B05091020129813A81240F351F275E3F4F58
S11301C0F9012081FC012083000080EC90E0FC0117
S11301D08081882F90E080729927892BB1F38981DF
S11301E09A8101969A83898389819A810E97E4F290
S11301F000000F900F90DF91CF910895CF93DF937C
S1130200CDB7DEB7F8940E942801809100018F5F7A
S11302108093000180910001813170F085E290E0CB
S113022025E230E0F901308124E02327FC0120831A
S1130230109200010E94CC0084E890E027E13EEF98
S1130240FC013183208378940000DF91CF910895DD
S1130250CF93DF93CDB7DEB7809101019091020176
S113026023E230E0F9012081222F30E0217033278E
S113027041E0232B09F440E0FC0147878091010110
S11302809091020126E230E0F9012081222F30E032
S11302902470332741E0232B09F440E0FC01408B18
S11302A0809101019091020129E230E0F90120815D
S11302B0222F30E02074332741E0232B09F440E05F
S11302C0FC01418B809101019091020129E230E00F
S11302D0F9012081222F30E02072332741E0232BC3
S11302E009F440E0FC01428B8091010190910201EC
S11302F029E230E0F9012081222F30E020713327F8
S113030041E0232B09F440E0FC01438B809101017F
S11303109091020126E230E0F9012081222F30E0A1
S11303202870332741E0232B09F440E0FC01448B7F
S1130330809101019091020129E230E0F9012081CC
S1130340222F30E02078332741E0232B09F440E0CA
S1130350FC01458B809101019091020126E230E07D
S1130360F9012081222F30E02072332741E0232B32
S113037009F440E0FC01468B809101019091020157
S113038029E230E0F9012081222F30E02071332767
S113039041E0232B09F440E0FC01478B80910101EB
S11303A09091020123E230E0F9012081222F30E014
S11303B02270332741E0232B09F440E0FC01408FF5
S11303C00E94C0068091010190910201FC01818D7F
S11303D0682F83E10E9450078091010190910201EE
S11303E0FC01828D682F82E10E94500780910101F7
S11303F090910201FC01838D682F81E10E945007D6
S11304008091010190910201FC01848D682F84E1A7
S11304100E9450078091010190910201FC01858D99
S1130420682F85E10E94500780910101909102019B
S1130430FC01868D682F85E00E94500780910101A0
S113044090910201FC01878D682F80E10E94500782
S11304508091010190910201FC0180A1682F83E049
S11304600E9450078091010190910201FC0181A139
S1130470682F84E00E94500780910101909102014D
S1130480FC0182A1682F82E00E9450078091010143
S113049090910201FC0183A1682F86E10E9450071C
S11304A08091010190910201FC0184A1682F87E1F0
S11304B00E9450078091010190910201FC0185A1E5
S11304C0682F81E00E945007809101019091020100
S11304D0FC0186A1682F80E00E94500760E086E05E
S11304E00E9450070000DF91CF9108951F920F9250
S11304F000905F000F9211248F939F93EF93FF93CB
S1130500CF93DF93CDB7DEB7F89486EC90E0FC018F
S11305101082000080EC90E0FC018081882F90E044
S113052080729927892BB1F378940000DF91CF91E1
S1130530FF91EF919F918F910F9000925F000F9028
S11305401F9018951F920F9200905F000F92112434
S11305502F938F939F93EF93FF93CF93DF93CDB715
S1130560DEB7F89486EC90E021E0FC0120830000E3
S113057080EC90E0FC018081882F90E080729927C4
S1130580892BB1F378940000DF91CF91FF91EF9123
S11305909F918F912F910F9000925F000F901F9069
S11305A018951F920F9200905F000F9211242F93C1
S11305B03F934F935F936F937F938F939F93AF93E7
S11305C0BF93EF93FF93CF93DF93CDB7DEB70E9432
S11305D0FE000000DF91CF91FF91EF91BF91AF91A9
S11305E09F918F917F916F915F914F913F912F9147
S11305F00F9000925F000F901F9018951F920F921A
S113060000905F000F9211242F933F934F935F93B9
S11306106F937F938F939F93AF93BF93EF93FF93C6
S1130620CF93DF93CDB7DEB7F89486EC90E0FC016E
S113063080810E94CC0078940000DF91CF91FF91DB
S1130640EF91BF91AF919F918F917F916F915F9146
S11306504F913F912F910F9000925F000F901F9048
S113066018951F920F9200905F000F9211242F9300
S11306703F934F935F936F937F938F939F93AF9326
S1130680BF93EF93FF93CF93DF93CDB7DEB70E9471
S113069028010000DF91CF91FF91EF91BF91AF91BD
S11306A09F918F917F916F915F914F913F912F9186
S11306B00F9000925F000F901F9018951F920F9259
S11306C000905F000F9211242F933F934F935F93F9
S11306D06F937F938F939F93AF93BF93EF93FF9306
S11306E0CF93DF93CDB7DEB70E9428010000DF91DE
S11306F0CF91FF91EF91BF91AF919F918F917F9196
S11307006F915F914F913F912F910F9000925F00F5
S11307100F901F9018951F920F9200905F000F92F8
S113072011242F933F934F935F936F937F938F93F2
S11307309F93AF93BF93EF93FF93CF93DF93CDB783
S1130740DEB70E9428010000DF91CF91FF91EF9165
S1130750BF91AF919F918F917F916F915F914F91D5
S11307603F912F910F9000925F000F901F9018956A
S1130770CF93DF93CDB7DEB783E091E0DF91CF91E4
S11307800895CF93DF9300D000D01F92CDB7DEB78A
S11307901A8219821AC0CE0103960E94CC062981BE
S11307A03A81C901880F991F820F931F9C012D5F05
S11307B03E4F8B819C81AD81F90180839183A2831B
S11307C089819A8101969A83898389819A8105977F
S11307D014F300000F900F900F900F900F90DF9183
S11307E0CF910895CF93DF931F92CDB7DEB71982CF
S11307F0FEC189818823F1F480912001882339F096
S113080080911F01882319F081E090E002C080E00C
S113081090E0482F4170509118018981282F30E0D1
S1130820C901880F991F820F931F8D5F9E4F652FFB
S11308300E94E8068981813009F07DC0809116010B
S1130840882339F080911901882319F081E090E020
S113085002C080E090E081709927892B09F1809192
S11308601401882339F080911201882319F081E062
S113087090E002C080E090E081709927892B39F4E0
S113088080911A01882319F081E090E002C080E091
S113089090E081709927892B19F081E090E002C0E3
S11308A080E090E0482F4170809112018823C1F0CC
S11308B09091170181E08927882349F090911401D0
S11308C081E08927882319F081E090E002C080E06C
S11308D090E081709927892B19F081E090E002C0A3
S11308E080E090E081709927892BA1F08091150117
S11308F0882321F480911801882319F081E090E085
S113090002C080E090E081709927892B19F081E082
S113091090E002C080E090E0582F51708981282F28
S113092030E0C901880F991F820F931F8D5F9E4F7E
S1130930652F0E94E8068981823009F06CC080919D
S11309401401882339F080911201882319F081E081
S113095090E002C080E090E081709927892B39F4FF
S113096080911A01882319F081E090E002C080E0B0
S113097090E081709927892B39F08091190188239F
S113098019F081E090E002C080E090E0482F4170CF
S113099080911601882339F080911901882319F078
S11309A081E090E002C080E090E081709927892B7B
S11309B009F180911501882321F48091180188237D
S11309C019F081E090E002C080E090E08170992706
S11309D0892B39F080911601882319F081E090E089
S11309E002C080E090E081709927892B19F081E0A2
S11309F090E002C080E090E0582F51708981282F48
S1130A0030E0C901880F991F820F931F8D5F9E4F9D
S1130A10652F0E94E8068981833009F07DC08091AA
S1130A201501882321F480911801882319F081E0AD
S1130A3090E002C080E090E081709927892B09F151
S1130A4080911401882339F080911201882319F0D0
S1130A5081E090E002C080E090E081709927892BCA
S1130A6039F480911A01882319F081E090E002C0E2
S1130A7080E090E081709927892B19F081E090E063
S1130A8002C080E090E0482F4170809116018823D5
S1130A9039F080911901882319F081E090E002C0B7
S1130AA080E090E081709927892B29F180911201CF
S1130AB08823C1F09091170181E08927882349F0A8
S1130AC09091140181E08927882319F081E090E056
S1130AD002C080E090E081709927892B19F081E0B1
S1130AE090E002C080E090E081709927892B19F092
S1130AF081E090E002C080E090E0582F517089813D
S1130B00282F30E0C901880F991F820F931F8D5F32
S1130B109E4F652F0E94E8068981843009F064C0E5
S1130B204091130180911501882321F480911801CB
S1130B30882319F081E090E002C080E090E08170A9
S1130B409927892B09F43FC0809112018823C1F0B1
S1130B509091170181E08927882349F0909114012D
S1130B6081E08927882319F081E090E002C080E0C9
S1130B7090E081709927892B19F081E090E002C000
S1130B8080E090E081709927892BA1F08091160173
S1130B90882339F080911901882319F081E090E0CD
S1130BA002C080E090E081709927892B19F081E0E0
S1130BB090E002C080E090E081709927892B19F0C1
S1130BC081E090E002C080E090E0582F517089816C
S1130BD0282F30E0C901880F991F820F931F8D5F62
S1130BE09E4F652F0E94E80689818F5F89838981E2
S1130BF0853008F4FECD00000F90DF91CF91089569
S1130C00CF93DF931F92CDB7DEB71982B0C089812D
S1130C10882359F48981882F90E03091180121E0CC
S1130C202327845E9E4FFC0120838981813021F536
S1130C308981282F30E0809105018823A1F08091DB
S1130C401F01882339F080912001882319F081E065
S1130C5090E002C080E090E081709927892B19F020
S1130C6081E090E002C080E090E0482F4170C9012B
S1130C70845E9E4FFC0140838981823049F48981DE
S1130C80882F90E020910801845E9E4FFC01208310
S1130C908981833049F48981882F90E020910B0168
S1130CA0845E9E4FFC0120838981843049F48981CC
S1130CB0882F90E020910E01845E9E4FFC012083DA
S1130CC08981863049F48981882F90E0209115012B
S1130CD0845E9E4FFC0120838981873049F4898199
S1130CE0882F90E020911101845E9E4FFC012083A7
S1130CF08981883039F48981882F90E0845E9E4F01
S1130D00FC0110828981893039F48981882F90E02F
S1130D10845E9E4FFC01108289818A3039F4898176
S1130D20882F90E0845E9E4FFC01108289818B3075
S1130D3039F48981882F90E0845E9E4FFC011082F3
S1130D4089818C3039F48981882F90E0845E9E4FAC
S1130D50FC01108289818D3039F48981882F90E0DB
S1130D60845E9E4FFC01108289818F5F8983898113
S1130D708E3008F44CCF00000F90DF91CF9108958E
S1130D80CF93DF93CDB7DEB70E94F2030E94000633
S1130D900000DF91CF910895CF93DF9300D0CDB7BA
S1130DA0DEB79A83898389819A8121E0FC012083BB
S1130DB089819A8121E0FC01218389819A8121E042
S1130DC0FC01228300000F900F90DF91CF910895D2
S1130DD0CF93DF9300D000D0CDB7DEB79A83898359
S1130DE06B834C838B81882361F089819A81FC0118
S1130DF0908181E08927882321F089819A81FC01EF
S1130E0012828C81882369F089819A81FC01918105
S1130E1081E08927882329F089819A8121E0FC01D6
S1130E20228389819A812B81FC01208389819A8183
S1130E302C81FC01218300000F900F900F900F90E4
S1130E40DF91CF910895CF93DF93CDB7DEB70E94A2
S1130E504800FFCFCF93DF93CDB7DEB788E290E0B1
S1130E602FEFFC0120838CE490E023E5FC01208338
S1130E7040E060E081E00E949F0740E060E080E0A5
S1130E800E949F0740E069E081E00E949F0740E0E4
S1130E9069E080E00E949F070000DF91CF910895F0
S1130EA0CF93DF9300D000D0CDB7DEB78B836C83B4
S1130EB08B8182958F70817089838981882309F45D
S1130EC019828981813011F481E089838B818F704B
S1130ED08B8369E089810E94E4078A838C8188235B
S1130EE099F08B81282F30E081E090E002C0880FD8
S1130EF0991F2A95E2F7982F8A81892B482F69E058
S1130F0089810E949F0713C08B81282F30E081E0E4
S1130F1090E002C0880F991F2A95E2F7982F9095C8
S1130F208A818923482F69E089810E949F070000F4
S1130F300F900F900F900F90DF91CF910895CF9362
S1130F40DF9300D01F92CDB7DEB789836A834B83CA
S1130F5088E290E028E230E0F9012081622F2981C3
S1130F60422F50E021E030E002C0220F331F4A95A7
S1130F70E2F720952623FC01208360E481E00E94AF
S1130F8029086A8181E00E9429086B8181E00E941E
S1130F90290888E290E028E230E0F9012081622FFC
S1130FA02981422F50E021E030E002C0220F331F9C
S1130FB04A95E2F7262BFC01208300000F900F9046
S1130FC00F90DF91CF910895CF93DF9300D01F92BC
S1130FD0CDB7DEB78A836B8388E290E028E230E005
S1130FE0F9012081622F2A81422F50E021E030E074
S1130FF002C0220F331F4A95E2F720952623FC01F5
S1131000208361E48A810E9429086B818A810E947D
S113101029086FEF8A810E942908898388E290E079
S113102028E230E0F9012081622F2A81422F50E02A
S113103021E030E002C0220F331F4A95E2F7262B4D
S1131040FC01208389810F900F900F90DF91CF9145
S11310500895CF93DF9300D0CDB7DEB789836A8339
S11310608EE490E02A81FC01208300008DE490E06E
S1131070FC0180818823D4F78EE490E0FC01808118
S11110800F900F90DF91CF910895F894FFCF59
S9030000FC
