:100000000C9434000C9446000C9446000C9446006A
:100010000C9446000C9446000C9446000C94460048
:100020000C9446000C9446000C9446000C94460038
:100030000C9446000C9446000C9446000C94460028
:100040000C9446000C9446000C9446000C94460018
:100050000C9446000C9446000C9446000C94460008
:100060000C9446000C94460011241FBECFEFD8E03C
:10007000DEBFCDBF21E0A0E0B1E001C01D92A932FA
:10008000B207E1F70E94AE000C94B9000C94000096
:10009000CF93DF93CDB7DEB70E9461000E94580076
:1000A00090930101809300010000DF91CF910895AA
:1000B000CF93DF93CDB7DEB782E091E0DF91CF91B0
:1000C0000895CF93DF9300D000D01F92CDB7DEB755
:1000D0001A8219821AC0CE0103960E9492002981C9
:1000E0003A81C901880F991F820F931F9C012E5FCF
:1000F0003E4F8B819C81AD81F90180839183A283E6
:1001000089819A8101969A83898389819A81059749
:1001100014F300000F900F900F900F900F90DF914D
:10012000CF910895CF93DF9300D0CDB7DEB79A83F8
:10013000898389819A8121E0FC01208389819A81C8
:1001400021E0FC01218389819A8121E0FC01228345
:1001500000000F900F90DF91CF910895CF93DF9320
:10016000CDB7DEB70E94480080E090E0DF91CF91EC
:060170000895F894FFCF92
:00000001FF
